{
    "_format": "hh-sol-artifact-1",
    "contractName": "MockReceiver",
    "sourceName": "contracts/MockReceiver.sol",
    "abi": [
        {
            "inputs": [],
            "name": "lastData",
            "outputs": [
                {
                    "internalType": "bytes",
                    "name": "",
                    "type": "bytes"
                }
            ],
            "stateMutability": "view",
            "type": "function"
        },
        {
            "inputs": [],
            "name": "lastTypeId",
            "outputs": [
                {
                    "internalType": "bytes32",
                    "name": "",
                    "type": "bytes32"
                }
            ],
            "stateMutability": "view",
            "type": "function"
        },
        {
            "inputs": [
                {
                    "internalType": "bytes32",
                    "name": "typeId",
                    "type": "bytes32"
                },
                {
                    "internalType": "bytes",
                    "name": "data",
                    "type": "bytes"
                }
            ],
            "name": "universalReceiver",
            "outputs": [
                {
                    "internalType": "bytes",
                    "name": "",
                    "type": "bytes"
                }
            ],
            "stateMutability": "nonpayable",
            "type": "function"
        }
    ],
    "bytecode": "0x608060405234801561001057600080fd5b506103ea806100206000396000f3fe608060405234801561001057600080fd5b50600436106100405760003560e01c80626e75ec14610045578063652f4020146100635780636bb56a141461007a575b600080fd5b61004d61008d565b60405161005a9190610145565b60405180910390f35b61006c60005481565b60405190815260200161005a565b61004d6100883660046101b0565b61011b565b6001805461009a9061026b565b80601f01602080910402602001604051908101604052809291908181526020018280546100c69061026b565b80156101135780601f106100e857610100808354040283529160200191610113565b820191906000526020600020905b8154815290600101906020018083116100f657829003601f168201915b505050505081565b60008290556060600161012e83826102f4565b505060408051602081019091526000815292915050565b600060208083528351808285015260005b8181101561017257858101830151858201604001528201610156565b81811115610184576000604083870101525b50601f01601f1916929092016040019392505050565b634e487b7160e01b600052604160045260246000fd5b600080604083850312156101c357600080fd5b82359150602083013567ffffffffffffffff808211156101e257600080fd5b818501915085601f8301126101f657600080fd5b8135818111156102085761020861019a565b604051601f8201601f19908116603f011681019083821181831017156102305761023061019a565b8160405282815288602084870101111561024957600080fd5b8260208601602083013760006020848301015280955050505050509250929050565b600181811c9082168061027f57607f821691505b60208210810361029f57634e487b7160e01b600052602260045260246000fd5b50919050565b601f8211156102ef57600081815260208120601f850160051c810160208610156102cc5750805b601f850160051c820191505b818110156102eb578281556001016102d8565b5050505b505050565b815167ffffffffffffffff81111561030e5761030e61019a565b6103228161031c845461026b565b846102a5565b602080601f831160018114610357576000841561033f5750858301515b600019600386901b1c1916600185901b1785556102eb565b600085815260208120601f198616915b8281101561038657888601518255948401946001909101908401610367565b50858210156103a45787850151600019600388901b60f8161c191681555b5050505050600190811b0190555056fea2646970667358221220b397de844fd9d31fd4c6b20f6fdef24c1bfd71c38ffc78d0062627b0cc00127464736f6c634300080f0033",
    "linkReferences": {},
    "deployedLinkReferences": {}
}