{
    "_format": "hh-sol-artifact-1",
    "contractName": "OwnerContract",
    "sourceName": "contracts/OwnerContract.sol",
    "abi": [
        {
            "inputs": [
                {
                    "internalType": "address",
                    "name": "_target",
                    "type": "address"
                }
            ],
            "stateMutability": "nonpayable",
            "type": "constructor"
        },
        {
            "inputs": [
                {
                    "internalType": "bytes32",
                    "name": "tokenId",
                    "type": "bytes32"
                }
            ],
            "name": "attack",
            "outputs": [],
            "stateMutability": "payable",
            "type": "function"
        },
        {
            "inputs": [
                {
                    "internalType": "bytes32",
                    "name": "tokenId",
                    "type": "bytes32"
                }
            ],
            "name": "attackStake",
            "outputs": [],
            "stateMutability": "payable",
            "type": "function"
        },
        {
            "inputs": [],
            "name": "catchReentrancy",
            "outputs": [
                {
                    "internalType": "bool",
                    "name": "",
                    "type": "bool"
                }
            ],
            "stateMutability": "view",
            "type": "function"
        },
        {
            "inputs": [],
            "name": "pause",
            "outputs": [],
            "stateMutability": "nonpayable",
            "type": "function"
        },
        {
            "inputs": [
                {
                    "internalType": "bool",
                    "name": "_catch",
                    "type": "bool"
                }
            ],
            "name": "setCatchReentrancy",
            "outputs": [],
            "stateMutability": "nonpayable",
            "type": "function"
        },
        {
            "inputs": [],
            "name": "target",
            "outputs": [
                {
                    "internalType": "address",
                    "name": "",
                    "type": "address"
                }
            ],
            "stateMutability": "view",
            "type": "function"
        },
        {
            "inputs": [],
            "name": "unpause",
            "outputs": [],
            "stateMutability": "nonpayable",
            "type": "function"
        },
        {
            "stateMutability": "payable",
            "type": "receive"
        }
    ],
    "bytecode": "0x60a060405234801561001057600080fd5b5060405161061138038061061183398101604081905261002f9161004f565b6001600160a01b03166080526002805461ff00191661010017905561007f565b60006020828403121561006157600080fd5b81516001600160a01b038116811461007857600080fd5b9392505050565b60805161054e6100c36000396000818160d60152818161015b01528181610299015281816103070152818161038d0152818161042e015261047d015261054e6000f3fe6080604052600436106100745760003560e01c80637ffc6d731161004e5780637ffc6d731461022a5780638456cb591461023d5780639e61bd3014610252578063d4b839921461028757600080fd5b80630466d8c9146101ce5780633a9ecc8d146102025780633f4ba83a1461021557600080fd5b366101c95760005460ff16801561008c575060015415155b801561009b575060025460ff16155b156101c7576002805460ff191660011790819055610100900460ff161561014157600154604051632f17ea7360e11b81526001600160a01b037f00000000000000000000000000000000000000000000000000000000000000001691635e2fd4e691349161010f9160040190815260200190565b6000604051808303818588803b15801561012857600080fd5b505af19350505050801561013a575060015b156101c757005b600154604051632f17ea7360e11b81526001600160a01b037f00000000000000000000000000000000000000000000000000000000000000001691635e2fd4e69134916101949160040190815260200190565b6000604051808303818588803b1580156101ad57600080fd5b505af11580156101c1573d6000803e3d6000fd5b50505050505b005b600080fd5b3480156101da57600080fd5b506002546101ed90610100900460ff1681565b60405190151581526020015b60405180910390f35b6101c76102103660046104d6565b6102d3565b34801561022157600080fd5b506101c761038b565b6101c76102383660046104d6565b610400565b34801561024957600080fd5b506101c761047b565b34801561025e57600080fd5b506101c761026d3660046104ef565b600280549115156101000261ff0019909216919091179055565b34801561029357600080fd5b506102bb7f000000000000000000000000000000000000000000000000000000000000000081565b6040516001600160a01b0390911681526020016101f9565b60008054600160ff19918216811790925590829055600280549091169055604051632f17ea7360e11b8152600481018290527f00000000000000000000000000000000000000000000000000000000000000006001600160a01b031690635e2fd4e69034906024016000604051808303818588803b15801561035457600080fd5b505af1158015610368573d6000803e3d6000fd5b50506000805460ff19908116825560019190915560028054909116905550505050565b7f00000000000000000000000000000000000000000000000000000000000000006001600160a01b0316633f4ba83a6040518163ffffffff1660e01b8152600401600060405180830381600087803b1580156103e657600080fd5b505af11580156103fa573d6000803e3d6000fd5b50505050565b60008054600160ff199182168117835583905560028054909116905560408051635ff94e7760e11b815290517f00000000000000000000000000000000000000000000000000000000000000006001600160a01b03169263bff29cee9234926004808301939282900301818588803b15801561035457600080fd5b7f00000000000000000000000000000000000000000000000000000000000000006001600160a01b0316638456cb596040518163ffffffff1660e01b8152600401600060405180830381600087803b1580156103e657600080fd5b6000602082840312156104e857600080fd5b5035919050565b60006020828403121561050157600080fd5b8135801515811461051157600080fd5b939250505056fea2646970667358221220da364a1e0f5dd13e08e6b9266f78dd6403d87263d400b87da99b2766aea1fdf064736f6c634300080f0033",
    "linkReferences": {},
    "deployedLinkReferences": {}
}